:020000040800F2
:1000000000000120C90D0008590200085B02000829
:100010005D0200085F0200086102000800000000A5
:100020000000000000000000000000006302000863
:10003000650200080000000067020008690200086D
:10004000190E0008190E0008190E0008190E0008F4
:10005000190E0008190E0008190E0008190E0008E4
:10006000190E0008190E0008190E0008190E0008D4
:10007000190E0008190E0008190E0008190E0008C4
:10008000190E0008190E0008190E0008190E0008B4
:10009000190E0008190E0008190E0008190E0008A4
:1000A000190E0008190E0008190E0008190E000894
:1000B000190E00080000000000000000190E0008E2
:1000C000190E00080000000000000000190E0008D2
:1000D00000000000190E0008190E000800000000C2
:1000E000190E0008190E00080000000000000000B2
:1000F0000000000000000000000000000000000000
:10010000000000000000000000000000190E0008C0
:100110000000000000000000190E0008190E000881
:10012000190E0008190E0008190E0008190E000813
:10013000190E000800000000000000000000000090
:10014000190E0008190E0008190E0008190E0008F3
:10015000190E0008190E0008190E0008190E0008E3
:10016000190E0008190E0008190E00080000000002
:10017000190E0008190E0008000000000000000021
:10018000190E0008190E0008190E000800000000E2
:1001900010B5054C237833B9044B13B10448AFF3C1
:1001A00000800123237010BD10000020000000001B
:1001B000740E000808B5034B1BB103490348AFF3A5
:1001C000008008BD0000000014000020740E00082C
:1001D00010B596B04022002106A800F043FE00248E
:1001E0000094019402940394049410230593012332
:1001F0000B9360230D9305A800F0F4F90F230093EF
:1002000001940294039404942146684600F030FD62
:100210004FF4007000F0FCF816B010BD08B500F007
:1002200071F8FFF7D5FFFEE782B00A4B1A6E42F075
:1002300001021A661A6E02F001020092009A9A6D8B
:1002400042F080529A659B6D03F080530193019BAD
:1002500002B07047001002407047FEE7FEE7FEE77D
:10026000FEE770477047704708B500F05BF808BDBF
:100270000F49D1F8883043F47003C1F888300D4B32
:100280001A6842F001021A60002098601A6822F091
:10029000A85222F410221A604FF48052DA601A68D1
:1002A00022F480221A6098614FF000638B607047DF
:1002B00000ED00E000100240104B1B780BB901204C
:1002C000704710B504464FF47A70B0FBF3F30C4A54
:1002D0001068B0FBF3F000F07DF868B90F2C01D97D
:1002E00001200AE0002221464FF0FF3000F03EF8E6
:1002F000024B5C60002000E0012010BD04000020E3
:100300000000002010B5032000F01EF80020FFF7C9
:10031000D3FF10B10124204610BD0446FFF784FF2F
:10032000F9E70000034B1B78034A11680B44136084
:10033000704700BF040000202C000020014B18680B
:10034000704700BF2C000020074AD36823F4E06305
:100350001B041B0C000200F4E060184340F0BF6077
:1003600040F40030D060704700ED00E030B4174B2F
:10037000DB68C3F30223C3F10704042C28BF042461
:100380001D1D062D18D9033B4FF0FF3505FA04F467
:1003900021EA0401994005FA03F322EA0303194311
:1003A00000280BDB0901C9B200F1604000F5614093
:1003B00080F8001330BC70470023E5E700F00F0021
:1003C0000901C9B2024B1954F4E700BF00ED00E087
:1003D00014ED00E00138B0F1807F0AD2064B58607E
:1003E000064AF02182F823100020986007221A6044
:1003F00070470120704700BF10E000E000ED00E012
:10040000024B186800F4C060704700BF00700040E5
:10041000B0F5007F0FD01F4B1B6803F4C063B3F52A
:10042000806F34D01B4A136823F4C06343F48063A5
:10043000136000207047174B1B6803F4C063B3F5CB
:10044000007F22D0134A136823F4C06343F400737F
:100450001360114B1A68322303FB02F30F4AA2FB0D
:1004600003239B0C013300E0013B0A4A526912F45A
:10047000806F01D0002BF7D1064B5B6913F4806FBE
:1004800001D10020704703207047002070470020F2
:10049000704700BF007000400000002083DE1B4357
:1004A00030B583B00546204B9B6D13F0805F0BD0B9
:1004B000FFF7A6FFB0F5007F17D0802D1FD82DD0F5
:1004C000702D2DD000211BE0174CA36D43F08053FD
:1004D000A365A36D03F080530193019BFFF790FF89
:1004E000A36D23F08053A365E4E7802D03D9A02DED
:1004F00003D9022104E0002102E0012100E00321F0
:100500000A4A136823F007030B431360136803F0D0
:1005100007038B4206D0012003B030BD0221EFE774
:100520000121EDE70020F7E7001002400020024023
:10053000284A9368D26802F0030213F00C030AD031
:100540000C2B06D0042B1FD0082B20D000200246F5
:1005500010E0012AF6D11F4A126812F0080F0CD1E0
:100560001C4AD2F89420C2F303221B4951F82220DE
:1005700043B100200C2B0DD07047164A1268C2F30D
:100580000312F2E71046F5E714480022F2E7144898
:100590000022EFE70F4BDB6803F00303022B15D0BB
:1005A000032B15D00B4BD868C0F302100130D9686B
:1005B000C1F3062102FB01F2B2FBF0F2D868C0F3EE
:1005C000416001304000B2FBF0F0D5E7034AE9E7B3
:1005D000034AE7E700100240900E00080024F400F0
:1005E00000127A00002800F02783F0B583B004469B
:1005F000AF4B9D6805F00C05DE6806F00306036846
:1006000013F0100F5BD0E5B10C2D18D0A369002BAF
:1006100000F0BC80A64A136843F001031360FFF7A3
:100620008DFE0746A24B1B6813F0020F40F09B8023
:10063000FFF784FEC01B0228F4D9032308E3012E30
:10064000E4D19B4B1B6813F0020F03D0A369002B6E
:1006500000F0F582206A964B1B6813F0080F5CD0FF
:10066000934B1B6803F0F00398425DD8904B1A68D7
:1006700042F008021A601A6822F0F002216A0A4366
:100680001A605A6822F47F42E16942EA01225A6004
:10069000002D61D0FFF74CFF854B9B68C3F303131C
:1006A000844AD35C03F01F03D840834B1860834B0C
:1006B0001868FFF701FE0346002840F0C98223684E
:1006C00013F0010F00F08180082D75D00C2D71D032
:1006D0006368B3F5803F00F09780B3F5A02F00F07A
:1006E0009980734B1A6822F480321A601A6822F4D7
:1006F00080221A606368002B00F09980FFF71EFECD
:1007000007466B4B1B6813F4003F5ED1FFF716FEE4
:10071000C01B6428F5D903239AE2654BD3F89430C3
:100720001B0903F0F0039FE7FFF7BAFE002840F033
:1007300088825F4B1A6842F008021A601A6822F039
:10074000F002216A0A431A605A6822F47F42E16982
:1007500042EA01225A609DE7206AFFF7A1FE0028C5
:1007600098D0012374E2524B1A6842F008021A60D2
:100770001A6822F0F002216A0A431A605A6822F4C9
:100780007F42E16942EA01225A6098E7484A1368C9
:1007900023F001031360FFF7D1FD0746444B1B68AC
:1007A00013F0020F8BD0FFF7C9FDC01B0228F5D94B
:1007B00003234DE2032E8BD13D4B1B6813F4003F06
:1007C00003D06368002B00F03E82236813F0020F11
:1007D0004FD0042D3CD00C2D38D0E368002B78D0BE
:1007E000334A136843F480731360FFF7A7FD06468E
:1007F0002F4B1B6813F4806F62D1FFF79FFD801BA6
:100800000228F5D9032323E2294A136843F48033ED
:1008100013606FE703F18043A3F53C331A6842F499
:1008200080221A601A6842F480321A6062E7FFF789
:1008300085FD07461E4B1B6813F4003FC5D0FFF72C
:100840007DFDC01B6428F5D9032301E2022EC4D12B
:10085000174B1B6813F4806F03D0E368002B00F084
:10086000F481134A536823F0FE43216943EA01638C
:100870005360236813F0080F56D06369002B3CD0F7
:100880000B4AD2F8943043F00103C2F89430FFF7DA
:1008900055FD0646064BD3F8943013F0020F43D1B2
:1008A000FFF74CFD801B0228F4D90323D0E100BFE1
:1008B00000100240C00E00080000002008000020C8
:1008C000B04A536823F0FE43216943EA0163536051
:1008D000CFE7AC4A136823F480731360FFF72EFD53
:1008E0000646A84B1B6813F4806FC2D0FFF726FDA5
:1008F000801B0228F5D90323AAE1A24AD2F894303A
:1009000023F00103C2F89430FFF718FD06469D4B13
:10091000D3F8943013F0020F06D0FFF70FFD801BC1
:100920000228F4D9032393E1236813F0040F7AD04B
:10093000944B9B6D13F0805F0BD1924B9A6D42F0FC
:1009400080529A659B6D03F080530193019B0126B1
:1009500000E000268C4B1B6813F4807F26D0A36830
:10096000012B37D0052B3DD0864BD3F8902022F0B9
:100970000102C3F89020D3F8902022F00402C3F8BB
:100980009020A368002B3BD0FFF7D8FC07467D4B97
:10099000D3F8903013F0020F44D1FFF7CFFCC01B07
:1009A00041F288339842F2D9032351E1764A136821
:1009B00043F480731360FFF7C1FC0746724B1B685A
:1009C00013F4807FCBD1FFF7B9FCC01B0228F5D907
:1009D00003233DE16B4AD2F8903043F00103C2F8A3
:1009E0009030CEE7674BD3F8902042F00402C3F872
:1009F0009020D3F8902042F00102C3F89020C0E785
:100A0000FFF79CFC07465F4BD3F8903013F0020FC2
:100A100008D0FFF793FCC01B41F288339842F2D90B
:100A2000032315E1E6B9236813F0200F35D0636A7C
:100A3000E3B1544AD2F8983043F00103C2F8983039
:100A4000FFF77CFC06464F4BD3F8983013F0020FAB
:100A500023D1FFF773FC801B0228F4D90323F7E0AE
:100A6000484A936D23F080539365DCE7454AD2F8FA
:100A7000983023F00103C2F89830FFF75FFC064678
:100A8000404BD3F8983013F0020F06D0FFF756FC16
:100A9000801B0228F4D90323DAE0A36A002B00F0BC
:100AA000D680022B27D00C2D00F0DB80354B1A6846
:100AB00022F080721A601B6813F0006F04D1314A73
:100AC000D36823F00303D3602E4AD36823F08873DE
:100AD00023F48033D360FFF731FC0446294B1B68B5
:100AE00013F0007F00F0A680FFF728FC001B02280F
:100AF000F4D90323ACE0234BDB6803F00301E26A83
:100B0000914209D00C2D00F0A6801E4B1B6813F0FB
:100B1000806F3BD001239BE003F07002216B013911
:100B2000B2EB011FEED103F4FE42616BB2EB012F79
:100B3000E8D103F07842A16BB2EBC16FE2D103F4CC
:100B4000C001E26B5208013AB1EB425FDAD103F027
:100B5000C063226C5208013AB3EB426FD2D1094B09
:100B60001B6813F0007F78D1064B1A6842F0807240
:100B70001A60DA6842F08072DA60FFF7DFFB044641
:100B800051E000BF0010024000700040364A136878
:100B900023F080731360FFF7D1FB0546324B1B68CF
:100BA00013F0007F06D0FFF7C9FB401B0228F5D9E0
:100BB00003234DE02C4AD3682C491940E36A206B8B
:100BC000013843EA0013606B43EA0023E06B4008FE
:100BD000013843EA4053206C4008013843EA40633F
:100BE000A06B43EAC0630B43D360136843F0807388
:100BF0001360D36843F08073D360FFF79FFB044614
:100C0000194B1B6813F0007F06D1FFF797FB001B01
:100C10000228F5D903231BE0002319E0FFF78EFB20
:100C2000001B02281BD8104B1B6813F0007FF5D067
:100C300000230DE000230BE0012318467047012339
:100C400006E0012304E0012302E0012300E0002389
:100C5000184603B0F0BD0123FAE70023F8E70323A9
:100C6000F6E70123F4E700BF001002408C809D01ED
:100C7000002800F09B8070B504464E4B1B6803F0C3
:100C800007038B420CD24B4A136823F007030B4334
:100C90001360136803F007038B4201D0012070BD7D
:100CA0000D46236813F0010F39D06368032B09D078
:100CB000022B26D063BB404A126812F0020F06D105
:100CC0000120ECE73C4A126812F0007F70D03A49EC
:100CD0008A6822F0030213438B60FFF72FFB06465E
:100CE000354B9B6803F00C036268B3EB820F16D0A0
:100CF000FFF724FB801B41F288339842F0D9032090
:100D0000CDE72D4A126812F4003FE0D10120C6E77A
:100D1000294A126812F4806FD9D10120BFE72368F5
:100D200013F0020F06D0244A936823F0F003A16861
:100D30000B4393601F4B1B6803F00703AB420CD9B6
:100D40001C4A136823F007032B431360136803F056
:100D50000703AB4201D00120A1E7236813F0040F81
:100D600006D0154A936823F4E063E1680B4393606F
:100D7000236813F0080F07D00F4A936823F46053D9
:100D8000216943EAC1039360FFF7D2FB0A4B9B68DA
:100D9000C3F30313094AD35C03F01F03D840084B85
:100DA0001860084B1868FFF787FA78E7012070474A
:100DB000012074E70020024000100240C00E00082D
:100DC0000000002008000020DFF834D0FFF750FAC0
:100DD000002103E00B4B5B58435004310A480B4B96
:100DE00042189A42F6D30A4A02E0002342F8043B32
:100DF000084B9A42F9D300F011F8FFF70FFAFEE71B
:100E000000000120E80E0008000000201000002073
:100E10001000002030000020FEE7000070B50D4EED
:100E20000D4CA41BA4100025A54209D10B4E0C4C5F
:100E300000F020F8A41BA4100025A54205D170BD28
:100E400056F8253098470135EEE756F82530984793
:100E50000135F2E7D80E0008D80E0008D80E0008B9
:100E6000DC0E000802440346934200D1704703F8A9
:100E7000011BF9E7F8B500BFF8BC08BC9E467047F7
:100E8000F8B500BFF8BC08BC9E46704700000000E3
:100E9000A0860100400D0300801A060000350C00FA
:100EA00040420F0080841E0000093D0000127A00BD
:100EB0000024F40000366E010048E801006CDC02FA
:100EC00000000000000000000102030406070809FA
:080ED000000000000102030410
:080ED800B50100080000000054
:080EE000910100080000000070
:100EE80000093D00010000001000000000000000A3
:0400000508000DC919
:00000001FF
