:020000040800F2
:1000000000000120B55500081154000813540008E1
:100010001554000817540008195400080000000087
:100020000000000000000000000000007145000812
:100030001B54000800000000114600087546000827
:100040000556000805560008055600080556000824
:100050000556000805560008055600080556000814
:1000600005560008055600081D54000805560008EE
:1000700005560008055600080556000805560008F4
:10008000055600080556000805560008715400087A
:10009000815400089154000805560008A154000836
:1000A00005560008FD5400080556000805560008CE
:1000B000055600080000000000000000055600087A
:1000C000055600080000000000000000055600086A
:1000D00000000000055600080D5500080000000053
:1000E000055600080556000800000000000000004A
:1000F0000000000000000000000000000000000000
:10010000000000000000000000000000055600088C
:100110000000000000000000055600080556000819
:100120000556000805560008055600080556000843
:10013000055600080000000000000000000000005C
:100140000556000805560008055600080556000823
:100150000556000805560008055600080556000813
:100160000556000805560008055600080000000066
:1001700005560008055600080000000000000000B9
:100180000556000805560008055600080000000046
:1001900010B5054C237833B9044B13B10448AFF3C1
:1001A00000800123237010BD10000020000000001B
:1001B0007856000808B5034B1BB103490348AFF359
:1001C000008008BD000000001400002078560008E0
:1001D00053B94AB9002908BF00281CBF4FF0FF31AE
:1001E0004FF0FF3000F072B9ADF1080C6DE904CEAC
:1001F00000F006F8DDF804E0DDE9022304B0704702
:100200002DE9F047089E04468846002B4BD18A42D0
:10021000154667D9B2FA82F24AB1C2F1200701FA53
:1002200002F320FA07F7954047EA030894404FEAA3
:10023000154E230CB8FBFEF71FFA85FC0EFB178842
:1002400043EA084307FB0CF1994209D9EB1807F17F
:10025000FF3080F01B81994240F21881023F2B440D
:100260005B1AA4B2B3FBFEF00EFB103344EA034466
:1002700000FB0CFCA44509D92C1900F1FF3380F0D8
:100280000781A44540F2048102382C4440EA07402B
:10029000A4EB0C0400271EB1D4400023C6E90043A0
:1002A0003946BDE8F0878B4209D9002E00F0EB807B
:1002B0000027C6E9000138463946BDE8F087B3FAA1
:1002C00083F7002F47D18B4202D3824200F2FA809B
:1002D000841A61EB030301209846002EE0D0C6E9A2
:1002E0000048DDE702B9FFDEB2FA82F2002A40F0F0
:1002F0008F80491B4FEA154E1FFA85F80127B1FB85
:10030000FEFC230C0EFB1C1143EA014308FB0CF11D
:10031000994207D9EB180CF1FF3002D2994200F252
:10032000CD808446591AA3B2B1FBFEF00EFB101427
:1003300043EA044408FB00F8A04507D92C1900F152
:10034000FF3302D2A04500F2B6801846A4EB0804A1
:1003500040EA0C409FE7C7F1200CBB4022FA0CFE9C
:100360004EEA030E01FA07F420FA0CF521FA0CF319
:100370004FEA1E482543B3FBF8F92C0C08FB193350
:100380001FFA8EFA44EA034309FB0AF49C4202FA7C
:1003900007F200FA07F10BD91EEB030309F1FF3056
:1003A00080F087809C4240F28480A9F10209734466
:1003B0001B1BADB2B3FBF8F008FB103345EA034456
:1003C00000FB0AFAA24508D91EEB040400F1FF3332
:1003D0006BD2A24569D90238744440EA0940A0FBB7
:1003E0000289A4EB0A044C45C2464B4654D351D073
:1003F000002E69D0B1EB0A0564EB030404FA0CFC8F
:10040000FD40FC404CEA0505C6E90054002747E7DB
:10041000C2F1200320FA03F7954001FA02F021FA15
:1004200003F34FEA154E3843010CB3FBFEF71FFAF6
:1004300085F80EFB173341EA034107FB08F38B42B3
:1004400004FA02F407D9691807F1FF3C2FD28B4256
:100450002DD9023F2944CB1A81B2B3FBFEF00EFB2B
:10046000103341EA034100FB08F38B4207D96918B6
:1004700000F1FF3C17D28B4215D902382944C91A22
:1004800040EA07473BE73746304609E70746E7E6D5
:100490001846FBE64145ABD2B8EB020A69EB0E0207
:1004A00001381346A4E76046E9E7184695E7674632
:1004B000D1E781467CE702382C4447E7ACF1020CD7
:1004C0002B442FE7384608E73746E9E6704700BF78
:1004D00010B5032001F006F9002004F05DFF10B113
:1004E0000124204610BD044604F06AFEF9E700002E
:1004F000034B1B78034A11680B441360704700BF1D
:1005000000000020B4320020014B1868704700BF83
:10051000B432002038B50446FFF7F6FF0546B4F1C3
:10052000FF3F02D0044B1B781C44FFF7EDFF401B3C
:10053000A042FAD338BD00BF0000002030B583B020
:1005400000230193002800F0DE800446436D03B3CE
:1005500023689A6812F0005F05D09A6822F0204262
:1005600022F03F029A602268936813F0805F1DD1E9
:10057000936823F0104323F03F0343F080539360CC
:10058000624B1B689B09624AA2FB03239B090193F0
:1005900009E004F035FE0023A36584F85030D7E766
:1005A000019B013B0193019B002BF9D123689A68C1
:1005B00012F0805F78D1626D42F010026265A26D28
:1005C00042F00102A26501209A6812F0040F6DD07A
:1005D0000121626D12F0100F40F08E80002940F072
:1005E0008B80626D22F4817242F0020262659B6828
:1005F00013F0010F0BD1474B9B6813F0010F06D18D
:10060000636845498A6822F47C1213438B60627EDA
:10061000636B43EA4233E2681343A268134394F8DE
:10062000202043EA0243012A42D0A26A22B102F406
:100630007072E16A0A4313432168CD68374A2A4041
:100640001343CB6023689A6812F0040F35D0012160
:100650009A6812F0080F32D00122B1B9AAB9217EEE
:1006600094F83020520042EA8131DA6822F4804264
:1006700022F002020A43DA6094F83830012B20D0CD
:100680002268136923F0010313612369012B2AD027
:100690002268136B23F00F031363636D23F00303CE
:1006A00043F0010363652CE000208DE7002190E713
:1006B000626A013A43EA4243B7E70021C8E70022F1
:1006C000CBE721680B6923F4FF6323F00403E26B9B
:1006D000256C2A43656C2A43A56C2A43134343F0D7
:1006E00001030B61D1E721680B6B23F00F03E26973
:1006F000013A13430B63D0E7636D43F01003636566
:10070000012003B030BD0120FBE700BF0C0000203A
:10071000632D3E05000004500003045007C0F0FFA5
:10072000F8B54369082B27D00368DB6813F0010F85
:100730001CD104260D460446FFF7E6FE0746236853
:100740001A6832421AD1B5F1FF3FF8D0FFF7DCFE4C
:10075000C01BA84201D8002DF1D1636D43F0040302
:100760006365002384F85030032004E0436D43F0B8
:10077000200343650120F8BD0826DBE7626D42F4E3
:1007800000726265DA6812F4406F11D1627E7AB944
:100790001A6812F0080F0BD0626D22F48072626545
:1007A000626D12F4805F03D1626D42F001026265F6
:1007B000DA68082E06D012F4804F07D10C221A6096
:1007C0000020D8E708221A600020D4E70020D2E7F2
:1007D0000368186C70470000F0B482B000220192E8
:1007E00090F85020012A00F031820346012280F85F
:1007F00050200268926812F0040F0AD0426D42F055
:10080000200242650120002283F8502002B0F0BC93
:1008100070474A68052A09D8023A032A00F28E80F6
:10082000DFE802F0028285880C224A601E684D686B
:100830000C6830362A0A920002F00C02B05805F01B
:100840001F051F27AF4020EA0700C4F38464AC40B3
:100850002043B0501A68906810F0040F71D0012046
:10086000946814F0080F6ED0012450BB4CBB0E6886
:100870008D681432700E800000F004001458C6F326
:1008800004560727B74024EA0704B5402C43145008
:100890004C691868C268C2F3C102520004FA02F23D
:1008A0000D69042D51D00E68603050F82570AE4CA3
:1008B0003C4006F0F8463243144344F0004440F80C
:1008C00025401868826812F0010F16D10A68CD68B9
:1008D000D0F8B040C2F3120624EA060405F0180668
:1008E000A24DF5402A40C2F312022243C0F8B020C4
:1008F000C8689F4A904200F08F800A689D490A426A
:1009000000F0A0819C49896801F0E0749B48824214
:1009100000F04B819A48824200F06D8199488242F2
:1009200000F07D8100206EE712224A607EE71822E7
:100930004A607BE74FF480724A6077E706224A609C
:1009400074E700208CE700248FE7026E046EC4F386
:1009500084640A68C2F312057DBBC2F384629442C8
:1009600033D01C68626E606EC0F384600A68C2F3A4
:1009700012057DBBC2F38462904233D01C68A26E24
:10098000A06EC0F384600A68C2F312057DBBC2F397
:100990008462904233D01C68E26EE06EC0F38460E3
:1009A0000A68C2F312057DBBC2F38462904288D10B
:1009B000E26E22F00042E26683E792FAA2F212B1FE
:1009C000B2FA82F2CBE72022C9E7026E22F000429F
:1009D0000266C6E792FAA2F212B1B2FA82F2CBE74D
:1009E0002022C9E7626E22F000426266C6E792FAF0
:1009F000A2F212B1B2FA82F2CBE72022C9E7A26ECC
:100A000022F00042A266C6E792FAA2F212B1B2FA4E
:100A100082F2CBE72022C9E71D680A68C2F31206FA
:100A2000002E35D1900E013000F01F0009288CBF38
:100A300000200120002862D0002E38D1940E01340D
:100A4000A40604F0F844002E3DD1900E013000F0D1
:100A50001F070120B8400443002E42D1920E0132FC
:100A600002F01F0202EB4202120522438C68143589
:100A7000500E800000F004002E58C2F304520727E5
:100A8000974026EA070604FA02F232432A5034E776
:100A900092FAA2F048B1B0FA80F0013000F01F00E5
:100AA00009288CBF00200120C4E72020F5E792FA36
:100AB000A2F414B1B4FA84F400E020240134A406B2
:100AC00004F0F844BFE792FAA2F010B1B0FA80F057
:100AD00000E02020013000F01F00012707FA00F09D
:100AE000B9E792FAA2F212B1B2FA82F200E0202241
:100AF000013202F01F0202EB42021205B5E7CEB945
:100B0000940E0134A40604F0F844FEB9900E0130AE
:100B100000F01F070120B8400443AEBB900E013027
:100B200000F01F0000EB40021E3A120542F0007276
:100B300022439BE792FAA2F414B1B4FA84F400E0E1
:100B400020240134A40604F0F844DEE792FAA2F06F
:100B500010B1B0FA80F000E02020013000F01F005A
:100B6000012707FA00F0D7E700F0FF03FFFF0700B7
:100B700000007F400000088000030450000052C7BE
:100B8000000084CB0100008092FAA2F212B1B2FA06
:100B900082F000E02020013000F01F0000EB400256
:100BA0001E3A120542F00072C2E711F4000F7FF402
:100BB000B1AE1968264A914201D0002023E644F4E0
:100BC00000022448816821F0E0710A438260224AD1
:100BD000126892092149A1FB0212920902EB42021A
:100BE0009100019102E0019A013A0192019A002AD2
:100BF000F9D1002007E611F0807F7FF48FAE1968ED
:100C0000134A914201D00020FDE544F08072114862
:100C1000816821F0E0710A4382600020F3E511F45D
:100C2000800F11D119680A4A914201D00020EAE5EB
:100C300044F480020748816821F0E0710A43826031
:100C40000020E0E50020DEE50020DCE50220DDE517
:100C500000000450000304500C000020632D3E05EA
:100C600070B5044603689A6812F0040F52D0012050
:100C70009A6812F0080F4FD0012208B9002A6BD0F1
:100C8000DA6812F0007F04D0208B40F2011290420B
:100C90004ED0022910D023689A6812F0040F0BD0AE
:100CA0009A6812F0020F07D19A6822F0004222F0EF
:100CB0003F0242F010029A60012910D023689A681E
:100CC00012F0080F0BD09A6812F0020F07D19A6841
:100CD00022F0004222F03F0242F020029A600229F4
:100CE00036D0032932D10C25FFF70EFC06462368C7
:100CF0009B682B422ED0FFF707FC801B0528F6D9F6
:100D0000636D43F010036365A36D43F00103A365B6
:100D1000012020E00020ABE70022AEE7636D43F046
:100D200010036365A36D43F00103A365012012E086
:100D30000022196811F0400F04D108498A42EDD809
:100D40000132F6E740221A600121A4E70425CBE72F
:100D50000825C9E7002070BD0020FCE7FFFF3FA386
:100D600038B503689A6812F0010F3DD199681F4A9F
:100D7000114209D0436D43F010034365836D43F086
:100D800001038365012030E004469A6822F00042A6
:100D900022F03F0242F001029A60FFF7B5FB0546E0
:100DA00004E0FFF7B1FB401B022811D823681A6842
:100DB00012F0010F16D19A6812F0010FF1D19A6862
:100DC00022F0004222F03F0242F001029A60E8E77E
:100DD000636D43F010036365A36D43F00103A365E6
:100DE000012002E0002000E0002038BD3F0000802C
:100DF00003689B6813F0040F3ED190F85030012B2C
:100E00003DD010B50446012380F85030FFF7A8FF0D
:100E1000034668BB626D22F4706222F0010242F464
:100E200080726265626D12F4805F1ED0A26D22F046
:100E30000602A26522681C211160002284F850205D
:100E40002168CA6812F0007F05D0626D22F440521A
:100E500042F4805262658A6822F0004222F03F022A
:100E600042F004028A60184610BD0022A265E1E744
:100E7000002284F85020F6E7022318467047022328
:100E8000FBE738B503689A6812F0020F15D001210C
:100E90009A6812F0010F37D0002937D19A6802F012
:100EA0000D02012A0BD0436D43F010034365836D9F
:100EB00043F001038365012027E00021E8E70446B1
:100EC0009A6822F0004222F03F0242F002029A6049
:100ED000036803221A60FFF717FB054623689B6827
:100EE00013F0010F0ED0FFF70FFB401B0228F5D9BE
:100EF000636D43F010036365A36D43F00103A365C5
:100F0000012002E0002000E0002038BD0020FCE7C6
:100F100090F85030012B1DD010B50446012380F805
:100F200050300321FFF79CFE034620B1002284F8D5
:100F30005020184610BD2046FFF7A3FF03460028A7
:100F4000F4D1626D22F4885222F0010242F00102D3
:100F50006265EBE7022318467047002800F0A18085
:100F600038B5044690F82030D3B12268136823F0D6
:100F700002031360FFF7C8FA054623685A6812F0A7
:100F8000020F10D0FFF7C0FA401B0A28F5D9636A98
:100F900043F400336362052384F82030012038BD18
:100FA00004F072F9E1E71A6842F001021A60FFF7F3
:100FB000ABFA054623685A6812F0010F0DD1FFF70E
:100FC000A3FA401B0A28F5D9636A43F4003363622D
:100FD000052384F820300120E1E7227E012A3DD05C
:100FE0001A6822F080021A60637E012B3BD02268CF
:100FF000136823F040031360A37E012B39D02268CD
:10100000136823F020031360E37E012B37D022689E
:10101000136843F010031360237F012B35D022683F
:10102000136823F008031360637F012B33D0226819
:10103000136823F004031360A368E2681343226972
:101040001343626913436268013A21681343CB6119
:1010500000206062012384F82030A0E71A6842F083
:1010600080021A60C0E72268136843F040031360EF
:10107000C2E72268136843F020031360C4E72268C4
:10108000136823F010031360C6E72268136843F067
:1010900008031360C8E72268136843F00403136071
:1010A000CAE701207047036890F82020013AD2B2C5
:1010B000012A05D9436A43F4802343620120704723
:1010C00070B4D3F8002242F00102C3F800224A694A
:1010D00002F01F02012000FA02F2D3F81C42D043B2
:1010E0000440C3F81C42CC69ACB9D3F80C420440AC
:1010F000C3F80C42CE688D884C6945EA06454834F1
:1011000043F834508E680D884C6945EA06454834EA
:1011100003EBC4046560CC69012C19D08C6974BBE5
:10112000D3F804420440C3F804420C696CBBD3F802
:1011300014422040C3F81402096A01292BD0D3F8C5
:10114000002222F00102C3F80022002070BC704788
:10115000D3F80C421443C3F80C420E688D884C69D6
:1011600045EA0645483443F834508E688D894C6909
:1011700045EA0645483403EBC4046560CEE7D3F87E
:1011800004421443C3F80442CFE7D3F814021043D7
:10119000C3F81402D0E7D3F81C120A43C3F81C2288
:1011A000CDE738B590F82030DBB2012B05D0436A8B
:1011B00043F400234362012038BD0446022380F833
:1011C00020300268136823F001031360FFF79CF9D5
:1011D000054623685B6813F0010F0DD0FFF794F903
:1011E000401B0A28F5D9636A43F400336362052380
:1011F00084F820300120DFE700206062DCE770B473
:1012000090F820400568AD68013CE4B2012C06D995
:10121000436A43F480234362012070BC704715F099
:10122000E05F5BD0C5F30165022D3ED80124AC40E0
:101230001C608B68002B3ED10E68CB68046843EAC3
:10124000465605F118031B01E65003680C6905F1C9
:10125000180603EB06135C600B7D012B36D0D179A9
:1012600093791B0443EA0163517943EA012314791A
:10127000016823432C012144C1F88C31D178937843
:101280001B0443EA0163517843EA012311780268A1
:101290000B432244C2F88831026818352D01535996
:1012A00043F0010353510020B7E7436A43F40003BE
:1012B00043620120B1E74C6843EAC403CC68066886
:1012C000234305F1180424013351BEE7036803EBFF
:1012D0000613596841F480715960C0E7436A43F4CA
:1012E00000134362012098E790F82030013BDBB205
:1012F000012B01D90020704703689A6812F0806FB3
:101300000BD100209A6812F0006F00D001309B686A
:1013100013F0805FEFD0013070470120F2E730B466
:1013200090F82040013CE4B2012C06D9436A43F412
:1013300080234362012030BC704700296FD10468CC
:10134000E46814F0030F64D0056801F11B04240164
:101350002C5904F004049460002C6BD1056801F151
:101360001B0424012C59640D1460056801F11B0451
:1013700024012D5905F00205D560056825446D68E6
:1013800005F00F051561056825446D68C5F307254F
:10139000956105682C446468240C546104680A0152
:1013A0001444D4F8B8411C7004681444D4F8B8410B
:1013B000C4F307245C7004681444D4F8B841C4F33F
:1013C00007449C7004681444D4F8B841240EDC70BF
:1013D00004681444D4F8BC411C7104681444D4F863
:1013E000BC41C4F307245C7104681444D4F8BC41C4
:1013F000C4F307449C7104682244D2F8BC21120E45
:10140000DA71F9B90268D36843F02003D360002091
:1014100091E7436A43F40013436201208BE70468B9
:10142000246914F0030F8FD1436A43F4001343621D
:10143000012080E7056801F11B0424012C59E40810
:10144000546092E70268136943F02003136100209F
:1014500071E790F82030013BDBB2012B05D9436ADC
:1014600043F48023436201207047026853691943A3
:101470005161002070477047704770477047704750
:101480007047704770477047704770472DE9F84FB5
:10149000054603685C695F689E68D3F80C90D3F8D2
:1014A0001080D3F818A014F0010F5AD016F0010FD5
:1014B00017D001229A6016F0020F08D116F0040F1F
:1014C00030D116F0080F07D04FF4805B0BE0FFF728
:1014D000D2FF4FF0000B06E0FFF7D0FF4FF0000BFC
:1014E00001E04FF0000B16F4807F0BD02B684FF417
:1014F00080729A6016F4007F17D116F4806F18D0AE
:101500004BF4005B16F4803F2DD02B684FF48032F3
:101510009A6016F4003F16D116F4802F17D04BF4C2
:10152000004B20E04FF4006BDDE72846FFF7A4FFF7
:10153000E8E716F4006F02D04BF4804BE2E7284650
:10154000FFF79DFFDEE72846FFF797FF0BE016F455
:10155000002F02D04BF4803B05E02846FFF790FFB8
:1015600001E04FF0000B14F0080F07D019F0100F36
:1015700004D04BF4007B2B681022DA6014F0040FC7
:1015800002D019F0080F60D114F0020F04D02B68BC
:10159000DB6813F0030F5FD114F0400F07D018F091
:1015A000100F04D04BF4806B2B6810221A6114F0DA
:1015B000200F02D018F0080F52D114F0100F04D0F1
:1015C0002B681B6913F0030F51D114F4003F02D0B4
:1015D00017F0100F4FD114F4803F02D017F0080F0E
:1015E00050D114F4004F67D017F0040F61D014F4F9
:1015F000807F04D01AF0010F01D04BF0010B14F4DE
:10160000007F04D01AF0020F01D04BF0020B14F44B
:10161000806F04D01AF0040F01D04BF0040B14F4C7
:10162000006F46D01AF0700A43D0BAF1300F48D09C
:101630002FD9BAF1500F47D0BAF1600F47D0BAF1A5
:10164000400F31D14BF0400B2EE02B680822DA60BE
:101650002846FFF716FF97E7284603F0EFF99BE7C8
:101660002B6808221A612846FFF70CFFA5E72846D9
:1016700003F0FCF9A9E72B6810225A602846FFF70F
:1016800002FFA8E72B6808225A602846FFF7FCFEF5
:10169000A7E7BAF1100F05D0BAF1200F04D14BF033
:1016A000100B01E04BF0080B2A68936923F07003DC
:1016B00093612B6804225A60BBF1000F0AD1BDE888
:1016C000F88F4BF0200BEFE74BF0800BECE74BF47F
:1016D000807BE9E76B6A43EA0B036B622846FFF7FE
:1016E000D4FEECE7074AD36823F4E0631B041B0C29
:1016F000000200F4E060184340F0BF6040F40030A6
:10170000D060704700ED00E030B4174BDB68C3F3E6
:101710000223C3F10704042C28BF04241D1D062D39
:1017200018D9033B4FF0FF3505FA04F421EA040110
:10173000994005FA03F322EA0303194300280BDB5F
:101740000901C9B200F1604000F5614080F8001362
:1017500030BC70470023E5E700F00F000901C9B273
:10176000024B1954F4E700BF00ED00E014ED00E077
:10177000002807DB00F01F02400901239340024AC2
:1017800042F82030704700BF00E100E008B590F853
:101790002530DBB2022B03D00423C363012008BD34
:1017A0000268136823F00E0313600268136823F0C5
:1017B00001031360436C03F01C03016C012202FA65
:1017C00003F34B6080F82520002380F82430836BDE
:1017D00013B198470020E2E70020E0E7F0B583B0BE
:1017E000002396E086685F000325BD4026EA0506D3
:1017F000CD68BD4035438560466826EA04064D68DD
:10180000C5F300149C4034434460C5685F00032462
:10181000BC40E44325408E68BE402E43C6604D6800
:10182000022D01D0122D13D1DE08083650F826E023
:1018300003F007054FEA850C0F2505FA0CF52EEA93
:10184000050E0D6905FA0CF545EA0E0540F826501F
:1018500005682C404D6805F00305BD402C4304602D
:101860004C6814F0805F53D0384C256E45F001056C
:101870002566246E04F001040194019C9D08AE1CB1
:10188000334C54F8267003F00304A6000F24B44030
:1018900027EA0407B0F1904F51D02E4CA04250D00F
:1018A00004F58064A04248D00724B4403C4302358C
:1018B000274E46F82540284C2568D44304EA0506FF
:1018C0004F6817F4803F01D042EA0506224D2E6092
:1018D0006D6804EA05064F6817F4003F01D042EA3C
:1018E00005061D4D6E60AD6804EA05064F6817F4E5
:1018F000801F01D042EA0506174DAE60ED682C400E
:101900004E6816F4001F01D042EA0504124AD46062
:1019100001330A6832FA03F415D001249C402240B6
:10192000F6D04D686E1E012E7FF65CAF112D3FF490
:1019300059AF122D7FF469AF54E70224B5E70024B4
:10194000B3E70124B1E703B0F0BD00BF00100240CF
:101950000000014000040048000401400AB981620F
:10196000704781617047704708B5054B5B6903425A
:1019700000D108BD024B5861FFF7F5FFF9E700BF42
:1019800000040140024B186800F4C060704700BFBB
:1019900000700040B0F5007F0FD01F4B1B6803F4B0
:1019A000C063B3F5806F34D01B4A136823F4C0635F
:1019B00043F48063136000207047174B1B6803F4E7
:1019C000C063B3F5007F22D0134A136823F4C063C9
:1019D00043F400731360114B1A68322303FB02F3C4
:1019E0000F4AA2FB03239B0C013300E0013B0A4A90
:1019F000526912F4806F01D0002BF7D1064B5B695E
:101A000013F4806F01D1002070470320704700203D
:101A100070470020704700BF007000400C0000209D
:101A200083DE1B4330B583B00546204B9B6D13F01E
:101A3000805F0BD0FFF7A6FFB0F5007F17D0802D99
:101A40001FD82DD0702D2DD000211BE0174CA36D79
:101A500043F08053A365A36D03F080530193019B72
:101A6000FFF790FFA36D23F08053A365E4E7802D7B
:101A700003D9A02D03D9022104E0002102E00121B5
:101A800000E003210A4A136823F007030B431360A5
:101A9000136803F007038B4206D0012003B030BD6A
:101AA0000221EFE70121EDE70020F7E700100240F7
:101AB00000200240284A9368D26802F0030213F023
:101AC0000C030AD00C2B06D0042B1FD0082B20D0DF
:101AD0000020024610E0012AF6D11F4A126812F0D7
:101AE000080F0CD11C4AD2F89420C2F303221B49E0
:101AF00051F8222043B100200C2B0DD07047164A1C
:101B00001268C2F30312F2E71046F5E71448002208
:101B1000F2E714480022EFE70F4BDB6803F0030302
:101B2000022B15D0032B15D00B4BD868C0F3021035
:101B30000130D968C1F3062102FB01F2B2FBF0F2D9
:101B4000D868C0F3416001304000B2FBF0F0D5E747
:101B5000034AE9E7034AE7E700100240AC560008F1
:101B60000024F40000127A00002800F02783F0B56A
:101B700083B00446AF4B9D6805F00C05DE6806F0A7
:101B80000306036813F0100F5BD0E5B10C2D18D0DD
:101B9000A369002B00F0BC80A64A136843F0010340
:101BA0001360FEF7B1FC0746A24B1B6813F0020F4F
:101BB00040F09B80FEF7A8FCC01B0228F4D9032349
:101BC00008E3012EE4D19B4B1B6813F0020F03D0F6
:101BD000A369002B00F0F582206A964B1B6813F076
:101BE000080F5CD0934B1B6803F0F00398425DD85C
:101BF000904B1A6842F008021A601A6822F0F0024C
:101C0000216A0A431A605A6822F47F42E16942EA73
:101C100001225A60002D61D0FFF74CFF854B9B6875
:101C2000C3F30313844AD35C03F01F03D840834BF0
:101C30001860834B186803F0AFFB0346002840F0A0
:101C4000C982236813F0010F00F08180082D75D040
:101C50000C2D71D06368B3F5803F00F09780B3F529
:101C6000A02F00F09980734B1A6822F480321A601A
:101C70001A6822F480221A606368002B00F09980B1
:101C8000FEF742FC07466B4B1B6813F4003F5ED126
:101C9000FEF73AFCC01B6428F5D903239AE2654B92
:101CA000D3F894301B0903F0F0039FE7FFF7BAFE67
:101CB000002840F088825F4B1A6842F008021A60E0
:101CC0001A6822F0F002216A0A431A605A6822F464
:101CD0007F42E16942EA01225A609DE7206AFFF7EC
:101CE000A1FE002898D0012374E2524B1A6842F0FA
:101CF00008021A601A6822F0F002216A0A431A6088
:101D00005A6822F47F42E16942EA01225A6098E768
:101D1000484A136823F001031360FEF7F5FB0746FA
:101D2000444B1B6813F0020F8BD0FEF7EDFBC01B7A
:101D30000228F5D903234DE2032E8BD13D4B1B68BE
:101D400013F4003F03D06368002B00F03E82236849
:101D500013F0020F4FD0042D3CD00C2D38D0E36887
:101D6000002B78D0334A136843F480731360FEF776
:101D7000CBFB06462F4B1B6813F4806F62D1FEF736
:101D8000C3FB801B0228F5D9032323E2294A1368E9
:101D900043F4803313606FE703F18043A3F53C33D2
:101DA0001A6842F480221A601A6842F480321A607B
:101DB00062E7FEF7A9FB07461E4B1B6813F4003FC2
:101DC000C5D0FEF7A1FBC01B6428F5D9032301E2AF
:101DD000022EC4D1174B1B6813F4806F03D0E36845
:101DE000002B00F0F481134A536823F0FE4321696D
:101DF00043EA01635360236813F0080F56D0636908
:101E0000002B3CD00B4AD2F8943043F00103C2F8C7
:101E10009430FEF779FB0646064BD3F8943013F066
:101E2000020F43D1FEF770FB801B0228F4D9032375
:101E3000D0E100BF00100240DC5600080C0000207A
:101E400004000020B04A536823F0FE43216943EAAE
:101E500001635360CFE7AC4A136823F480731360C7
:101E6000FEF752FB0646A84B1B6813F4806FC2D0E6
:101E7000FEF74AFB801B0228F5D90323AAE1A24AF8
:101E8000D2F8943023F00103C2F89430FEF73CFB03
:101E900006469D4BD3F8943013F0020F06D0FEF7A0
:101EA00033FB801B0228F4D9032393E1236813F04A
:101EB000040F7AD0944B9B6D13F0805F0BD1924B43
:101EC0009A6D42F080529A659B6D03F080530193A6
:101ED000019B012600E000268C4B1B6813F4807FD9
:101EE00026D0A368012B37D0052B3DD0864BD3F8E5
:101EF000902022F00102C3F89020D3F8902022F025
:101F00000402C3F89020A368002B3BD0FEF7FCFA34
:101F100007467D4BD3F8903013F0020F44D1FEF703
:101F2000F3FAC01B41F288339842F2D9032351E1FE
:101F3000764A136843F480731360FEF7E5FA0746A8
:101F4000724B1B6813F4807FCBD1FEF7DDFAC01B08
:101F50000228F5D903233DE16B4AD2F8903043F0D3
:101F60000103C2F89030CEE7674BD3F8902042F0DF
:101F70000402C3F89020D3F8902042F00102C3F885
:101F80009020C0E7FEF7C0FA07465F4BD3F89030C9
:101F900013F0020F08D0FEF7B7FAC01B41F28833E6
:101FA0009842F2D9032315E1E6B9236813F0200F14
:101FB00035D0636AE3B1544AD2F8983043F0010354
:101FC000C2F89830FEF7A0FA06464F4BD3F8983087
:101FD00013F0020F23D1FEF797FA801B0228F4D9E1
:101FE0000323F7E0484A936D23F080539365DCE7C1
:101FF000454AD2F8983023F00103C2F89830FEF732
:1020000083FA0646404BD3F8983013F0020F06D0FF
:10201000FEF77AFA801B0228F4D90323DAE0A36AD8
:10202000002B00F0D680022B27D00C2D00F0DB8097
:10203000354B1A6822F080721A601B6813F0006F2B
:1020400004D1314AD36823F00303D3602E4AD36806
:1020500023F0887323F48033D360FEF755FA0446E7
:10206000294B1B6813F0007F00F0A680FEF74CFAA6
:10207000001B0228F4D90323ACE0234BDB6803F0F8
:102080000301E26A914209D00C2D00F0A6801E4B9C
:102090001B6813F0806F3BD001239BE003F07002BC
:1020A000216B0139B2EB011FEED103F4FE42616BEB
:1020B000B2EB012FE8D103F07842A16BB2EBC16F14
:1020C000E2D103F4C001E26B5208013AB1EB425F86
:1020D000DAD103F0C063226C5208013AB3EB426FCD
:1020E000D2D1094B1B6813F0007F78D1064B1A68D8
:1020F00042F080721A60DA6842F08072DA60FEF7AD
:1021000003FA044651E000BF001002400070004096
:10211000364A136823F080731360FEF7F5F905461D
:10212000324B1B6813F0007F06D0FEF7EDF9401B21
:102130000228F5D903234DE02C4AD3682C491940D5
:10214000E36A206B013843EA0013606B43EA002323
:10215000E06B4008013843EA4053206C40080138E6
:1021600043EA4063A06B43EAC0630B43D360136848
:1021700043F080731360D36843F08073D360FEF73D
:10218000C3F90446194B1B6813F0007F06D1FEF714
:10219000BBF9001B0228F5D903231BE0002319E03B
:1021A000FEF7B2F9001B02281BD8104B1B6813F076
:1021B000007FF5D000230DE000230BE0012318463B
:1021C0007047012306E0012304E0012302E001231C
:1021D00000E00023184603B0F0BD0123FAE7002316
:1021E000F8E70323F6E70123F4E700BF00100240FD
:1021F0008C809D01002800F09B8070B504464E4BFA
:102200001B6803F007038B420CD24B4A136823F080
:1022100007030B431360136803F007038B4201D0DD
:10222000012070BD0D46236813F0010F39D063689B
:10223000032B09D0022B26D063BB404A126812F050
:10224000020F06D10120ECE73C4A126812F0007F31
:1022500070D03A498A6822F0030213438B60FEF77C
:1022600053F90646354B9B6803F00C036268B3EBE9
:10227000820F16D0FEF748F9801B41F2883398424E
:10228000F0D90320CDE72D4A126812F4003FE0D1C7
:102290000120C6E7294A126812F4806FD9D10120C3
:1022A000BFE7236813F0020F06D0244A936823F097
:1022B000F003A1680B4393601F4B1B6803F00703F7
:1022C000AB420CD91C4A136823F007032B4313605D
:1022D000136803F00703AB4201D00120A1E7236894
:1022E00013F0040F06D0154A936823F4E063E16805
:1022F0000B439360236813F0080F07D00F4A9368CD
:1023000023F46053216943EAC1039360FFF7D2FBD2
:102310000A4B9B68C3F30313094AD35C03F01F0302
:10232000D840084B1860084B186803F035F878E778
:1023300001207047012074E7002002400010024095
:10234000DC5600080C00002004000020014B186837
:10235000704700BF0C00002008B5FFF7F7FF054BE2
:102360009B68C3F30223044AD35C03F01F03D840E5
:1023700008BD00BF00100240EC56000808B5FFF78A
:10238000E5FF054B9B68C3F3C223044AD35C03F00B
:102390001F03D84008BD00BF00100240EC560008E3
:1023A0000F2303600B4B9A6802F0030242609A68A5
:1023B00002F0F00282609A6802F4E062C2609B68F8
:1023C000DB0803F4E0630361034B1B6803F00703BE
:1023D0000B6070470010024000200240F8B5594BD6
:1023E000DB6813F0030F18D0564BDB6803F00303D0
:1023F0000268934202D001252846F8BD002A00F069
:102400009F80504BDB68C3F3021301334268934251
:1024100001D00125F0E700251AE00368022B58D00F
:10242000032B5DD0012B01D001250FE0454A126836
:1024300012F0020F60D0434DEA6822F07302446844
:10244000013C43EA04131343EB600025002DD3D174
:102450000F4604463B4A136823F080631360FEF77F
:1024600053F80646374B1B6813F0006F05D0FEF794
:102470004BF8801B0228F5D90325002DBCD1002F75
:102480003CD130490B6923F0784323F4FE43A06824
:10249000E268D20642EA002213430B61294A13681C
:1024A00043F080631360FEF72FF80646254B1B6848
:1024B00013F0006F05D1FEF727F8801B0228F5D92D
:1024C0000325002D98D11F4A1369A1690B4313619D
:1024D00092E71C4A126812F4806FACD10125B5E76F
:1024E000184A126812F4003FA5D1164A126812F475
:1024F000802FA0D10125A9E70125A7E7012F0FD043
:102500001048026922F0C06222F4FE42A1686369A9
:102510005B08013B5B0643EA012313430361BDE70C
:102520000848026922F4C00222F4FE42A16823692D
:102530005B08013B5B0543EA012313430361ADE7FD
:10254000012559E7001002402DE9F04182B0044610
:10255000036813F4006F26D0C36BB3F5000F06D0E9
:10256000B3F5400F1DD09BB1012637461DE0AE4AA2
:10257000D36843F48033D3600027AB4AD2F8883065
:1025800023F44003E16B0B43C2F8883000260CE0D3
:1025900000210430FFF722FF07460028EDD0064651
:1025A00003E00027E9E700263746236813F4003FDD
:1025B0006BD09D4B9B6D13F0805F4CD19A4B9A6D05
:1025C00042F080529A659B6D03F080530193019B0A
:1025D0004FF00108954A136843F480731360FDF7C8
:1025E00093FF0546914B1B6813F4807F05D1FDF7DF
:1025F0008BFF401B0228F5D90327002F40D18A4BBF
:10260000D3F8903013F4407315D0226D9A4212D053
:10261000854AD2F8903023F44073D2F8901041F4F8
:102620008031C2F89010D2F8901021F48031C2F8B5
:102630009010C2F8903013F0010F0FD1002F40F02E
:10264000C980794AD2F8903023F44073216D0B434E
:10265000C2F8903015E04FF00008BBE7FDF754FFDB
:102660000546714BD3F8903013F0020FE6D1FDF719
:102670004BFF401B41F288339842F2D90327DDE734
:102680003E46B8F1000F40F0A780236813F0010F19
:1026900008D0654AD2F8883023F00303216A0B433F
:1026A000C2F88830236813F0020F08D05E4AD2F8CF
:1026B000883023F00C03616A0B43C2F8883023682A
:1026C00013F0200F08D0584AD2F8883023F4406322
:1026D000A16A0B43C2F88830236813F4007F08D046
:1026E000514AD2F8883023F44023616B0B43C2F87F
:1026F0008830236813F4806F08D04B4AD2F88830B2
:1027000023F44013A16B0B43C2F88830236813F005
:10271000400F08D0444AD2F8883023F44053E16A8D
:102720000B43C2F88830236813F4807F08D03E4AF8
:10273000D2F8883023F44033216B0B43C2F8883041
:10274000236813F4005F0FD0374AD2F8883023F0A3
:102750004063216C0B43C2F88830236CB3F1006FE7
:1027600040D0B3F1806F42D0236813F4802F0FD094
:102770002D4AD2F8883023F04063616C0B43C2F8D5
:102780008830636CB3F1006F39D0B3F1806F3BD008
:10279000236813F4804F0CD0234AD2F8883023F0FA
:1027A0004053A16C0B43C2F88830A36CB3F1805F37
:1027B00032D0236813F4004F08D01B4AD2F8883077
:1027C00023F08043E16C0B43C2F88830304602B0FE
:1027D000BDE8F0813E4654E7134A936D23F08053E1
:1027E000936552E7D36843F48013D360BCE70121BB
:1027F000201DFFF7F3FD0028B6D00646B4E7D368E6
:1028000043F48013D360C3E70121201DFFF7E6FDE9
:102810000028BDD00646BBE70221201DFFF7DEFDE4
:102820000028C6D00646C4E70010024000700040F1
:102830007047000090F83D30DBB2012B01D0012041
:102840007047022380F83D300268D36843F00103EB
:10285000D3600368104A93420CD0B3F1804F09D083
:1028600002F5A052934205D01A6842F001021A60A4
:10287000002070479968094A0A40062A08D0B2F534
:10288000803F07D01A6842F001021A6000207047AA
:102890000020704700207047002C01400700010015
:1028A000704770477047704710B5044603681A694F
:1028B00012F0020F11D0DA6812F0020F0DD06FF093
:1028C00002021A610123037703689B6913F0030F67
:1028D00079D0FFF7E6FF0023237723681A6912F007
:1028E000040F12D0DA6812F0040F0ED06FF0040259
:1028F0001A610223237723689B6913F4407F68D011
:102900002046FFF7CEFF0023237723681A6912F0D1
:10291000080F12D0DA6812F0080F0ED06FF008021C
:102920001A61042323772368DB6913F0030F57D060
:102930002046FFF7B6FF0023237723681A6912F0B9
:10294000100F12D0DA6812F0100F0ED06FF01002D4
:102950001A61082323772368DB6913F4407F46D08C
:102960002046FFF79EFF0023237723681A6912F0A1
:10297000010F03D0DA6812F0010F3FD123681A6902
:1029800012F0800F03D0DA6812F0800F3DD1236877
:102990001A6912F4807F03D0DA6812F0800F3BD1FD
:1029A00023681A6912F0400F03D0DA6812F0400F62
:1029B00039D123681A6912F0200F03D0DA6812F0B7
:1029C000200F37D110BDFFF76BFF2046FFF76AFFDE
:1029D00081E72046FFF764FF2046FFF763FF92E799
:1029E0002046FFF75DFF2046FFF75CFFA3E7204688
:1029F000FFF756FF2046FFF755FFB4E76FF00102DF
:102A00001A61204602F070FAB8E76FF080021A618E
:102A1000204600F07FF8BAE76FF480721A61204612
:102A200000F079F8BCE76FF040021A612046FFF72A
:102A30003AFFBEE76FF020021A61204600F069F805
:102A4000C0E7000003681A4A904202D0B0F1804FFC
:102A500003D123F070034A681343154A90420AD009
:102A6000B0F1804F07D002F5A052904203D002F59A
:102A70008062904203D123F44073CA68134323F069
:102A800080034A69134303608B68C3620B688362E7
:102A9000074B984207D003F5A053984203D003F5A3
:102AA0008063984201D10B6903630123436170473E
:102AB000002C014058B310B5044690F83D300BB3DC
:102AC000022384F83D30211D2068FFF7BBFF01235E
:102AD00084F8483084F83E3084F83F3084F8403041
:102AE00084F8413084F8423084F8433084F844302C
:102AF00084F8453084F8463084F8473084F83D3017
:102B0000002010BD80F83C30FFF792FED8E701208E
:102B100070477047704770470268136823F49073DA
:102B200013600268936823F0010393602023836796
:102B3000002303667047436F212B00D07047B0F825
:102B400052309BB26BB1C26C036812781A85C36CA9
:102B50000133C364B0F85230013B9BB2A0F852304D
:102B6000ECE70268136823F08003136002681368BF
:102B700043F0400313607047436F212B00D0704730
:102B8000B0F852309BB27BB1C36C1B880268C3F3B0
:102B900008031385C36C0233C364B0F85230013BA1
:102BA0009BB2A0F85230EAE70268136823F0800372
:102BB00013600268136843F040031360704700001D
:102BC000436F202B28D149B352B390F87030012BBA
:102BD00028D0012380F87030C164A0F85020A0F8FC
:102BE000522000234366C367212343678368B3F5FC
:102BF000805F0BD00C4B4366002380F87030016877
:102C00000A6842F080020A60184670470369002B88
:102C1000F0D1064B4366EFE7022070470120704772
:102C20000120704702207047372B0008792B0008DD
:102C300008B501680A6822F040020A602022426753
:102C40000022426602F08EFC08BD704770B5044653
:102C50000168CB6908688D6840F60F021A400CD1F4
:102C600013F0200F09D010F0200F06D0236E002B98
:102C700000F0A180204698479DE0002A7DD015F005
:102C8000010202D14E4E304277D013F0010F07D02F
:102C900010F4807F04D001250D62E16F2943E167C4
:102CA00013F0020F07D032B1216802250D62E16FE7
:102CB00041F00401E16713F0040F07D032B121683D
:102CC00004250D62E16F41F00201E16713F0080F86
:102CD00009D010F0200F00D12AB12268082111621A
:102CE000E26F0A43E26713F4006F0AD010F0806FBE
:102CF00007D022684FF400611162E26F42F02002B7
:102D0000E267E26F002A56D013F0200F06D010F0D1
:102D1000200F03D0236E0BB120469847E26F236843
:102D20009B6813F0400F02D112F0280F1FD02046ED
:102D3000FFF7F2FE23689A6812F0400F13D09A68EA
:102D400022F040029A60E36E4BB11E4A9A63E06E35
:102D5000FEF71CFD78B3E06E836B98472BE02046AE
:102D6000FFF773FF27E02046FFF76FFF23E02046C1
:102D7000FFF76BFF0023E3671DE013F4801F02D011
:102D800015F4800F0AD113F0800F0ED010F0800FD1
:102D90000BD0636E7BB1204698470CE04FF4801354
:102DA0000B62204600F066FA05E013F0400F02D0F7
:102DB00010F0400F00D170BD2046FFF739FFFAE751
:102DC00020010004C92D000808B5806A0023A0F87E
:102DD0005A30A0F85230FFF738FF08BD2DE9D84827
:102DE0000446016883680269134342691343C26958
:102DF000134308688C4A024013430B6022685368EF
:102E000023F44053E1680B435360A1692268874B68
:102E10009A4201D0236A1943936823F430630B4329
:102E200093602368824A93421CD0824A93422DD0F9
:102E30007E4A934243D010227C498B425ED0E369A4
:102E4000B3F5004F00F08C80082A00F2E780DFE83D
:102E500012F0B700CE00B500E500D100E500E500B6
:102E6000E500D40002F55842D2F8882002F00302AF
:102E7000032A09D8DFE802F002043C060122DBE75E
:102E80000422D9E70822D7E71022D5E702F5E63277
:102E9000D2F8882002F00C020C2A0ED8DFE802F0EB
:102EA000070D0D0D090D0D0D2A0D0D0D0B00002246
:102EB000C2E70422C0E70822BEE71022BCE702F501
:102EC000C832D2F8882002F44062B2F5806F0BD08D
:102ED00007D9B2F5006F0FD0B2F5406F06D10822C6
:102EE000AAE71AB90022A7E70422A5E71022A3E760
:102EF0000222A1E702229FE702229DE7082A7FD84B
:102F0000DFE802F0087E107E0D7E7E7E05004FF425
:102F1000004008E0FFF720FA28B9002062E0FEF741
:102F2000C9FDF9E74448626802EB4203834269D86D
:102F3000B0EB023F68D80023070E0602500816EBDC
:102F4000000B47F1000C58466146FDF741F9A0F52A
:102F500040723A4B9A4259D82368D860002041E029
:102F6000082A55D8DFE802F00721055424545454A8
:102F70002700314803E0FFF7EFF900284AD06268E4
:102F8000530803EB4003B3FBF2F39BB2A3F1100130
:102F90004FF6EF7291423FD823F00F02C3F3420382
:102FA00013432268D36000201CE0FFF7E7F9E4E751
:102FB000FEF780FDE1E74FF40040E0E71E4802E045
:102FC000FFF7CAF960B3636800EB5300B0FBF3F09E
:102FD00080B2A0F110024FF6EF739A4222D8236814
:102FE000D8600020002323666366BDE8D888FFF719
:102FF000C5F9E7E7FEF75EFDE4E74FF40040E2E7DE
:103000000120EFE70120EDE70120EBE70120E9E7F0
:103010000120E7E70020E5E70120E3E70120E1E701
:103020000020DFE70120DDE7F369FFEF00800040CB
:1030300000380140004400400024F400FFFC0F0071
:10304000436A13F0010F06D00268536823F400337B
:10305000816A0B435360436A13F0020F06D0026883
:10306000536823F48033C16A0B435360436A13F0FF
:10307000040F06D00268536823F48023016B0B43CE
:103080005360436A13F0080F06D00268536823F4B4
:103090000043416B0B435360436A13F0100F06D09B
:1030A0000268936823F48053816B0B439360436AF7
:1030B00013F0200F06D00268936823F40053C16B0D
:1030C0000B439360436A13F0400F0AD002685368C1
:1030D00023F48013016C0B435360036CB3F5801F22
:1030E0000BD0436A13F0800F06D00268536823F4B4
:1030F0000023816C0B43536070470268536823F4CC
:10310000C003416C0B435360EBE72DE9F0410446EB
:103110000F4616469846069D2368DB6937EA030387
:103120000CBF01230023B3423AD1B5F1FF3FF3D0E6
:10313000FDF7EAF9A0EB0800A8421FD8F5B1236813
:103140001A6812F0040FE7D0DA6912F4006FE3D0C6
:103150004FF400621A622268136823F4D07313607C
:103160002268936823F00103936020236367A367B9
:10317000E367002384F87030032012E022681368AC
:1031800023F4D07313602268936823F001039360E3
:1031900020236367A367002384F87030032000E0D6
:1031A0000020BDE8F08130B583B004460023C3673A
:1031B000FDF7AAF9054623681B6813F0080F0CD128
:1031C00023681B6813F0040F15D120236367A367DE
:1031D000002084F8700003B030BD6FF07E43009390
:1031E000034600224FF400112046FFF78EFF00280F
:1031F000E6D00320EFE76FF07E4300932B460022DA
:103200004FF480012046FFF780FF0028DDD0032027
:10321000E1E768B310B50446436F03B32423636743
:103220002268136823F0010313602046FFF7D6FDE0
:10323000012813D0636ABBB92268536823F4904312
:1032400053602268936823F02A039360226813680E
:1032500043F0010313602046FFF7A5FF10BD80F87F
:10326000703002F05DF8D9E72046FFF7E9FEE3E7AA
:10327000012070477047842801D003307047002038
:10328000704708B500F0FCFD002008BD2DE9F043B3
:1032900087B004460F464569A5B1866996B1D0F856
:1032A0000480D0F80090B0F90800FFF7E4FF22692D
:1032B0000296019500903B464946404600F072FD5B
:1032C000059013E065682668D4F81080B4F908000A
:1032D000FFF7D1FF05AB019300903B461FFA88F240
:1032E0003146284600F098FD012803D1059807B023
:1032F000BDE8F0830020FAE708B5034600B90123D2
:10330000184600F059FF002008BD00F10803436093
:103310004FF0FF328260C360036100230360704797
:1033200000230361704743684B609A688A609A681B
:10333000516099600861036801330360704730B4DD
:103340000D68B5F1FF3F02D000F1080202E002690A
:1033500004E01A4653681C68AC42FAD953684B60C3
:1033600099608A605160086103680133036030BC72
:103370007047036942688168916082684168516062
:103380005A68824206D0002202611A68013A1A6025
:103390001868704782685A60F5E710B5044601F076
:1033A000F9F8A26BE36B9A4204D0002401F014F9FF
:1033B000204610BD0124F9E710B5044601F0EAF8F3
:1033C000A36B23B1002401F007F9204610BD0124AE
:1033D000F9E770B504461646856B026C5AB9036866
:1033E0001BB100200135A56370BD806801F010F8A5
:1033F0000023A360F6E76EB9406802F029F9226C59
:10340000636813446360A268934219D323686360BE
:103410000020E7E7C06802F01BF9226C5242E36823
:103420001344E36021688B4202D2A3681A44E2602D
:10343000022E01D00020D5E725B1013D0020D1E7C3
:103440000020CFE70020CDE7026C72B110B5C36851
:103450001344C3608468A34201D30368C3600C466D
:10346000C168204602F0F4F810BD704738B5054633
:1034700001F090F895F8454064B203E000F0B0FF29
:10348000013C64B2002C08DD6B6A33B105F1240005
:1034900000F01AFF0028F3D0F0E7FF2385F845304D
:1034A00001F09AF801F076F895F8444064B203E030
:1034B00000F096FF013C64B2002C08DD2B6933B1AB
:1034C00005F1100000F000FF0028F3D0F0E7FF2323
:1034D00085F8443001F080F838BD000038B540B9B7
:1034E0004FF0500383F31188BFF36F8FBFF34F8FFB
:1034F000FEE704460D4601F04DF82168E26B236CAF
:1035000003FB0210A0600020A0636160013A02FB8F
:103510000313E360FF2384F8443084F84530A5B9F1
:1035200023691BB901F058F8012038BD04F11000DF
:1035300000F0CAFE0028F5D0084B4FF080521A6008
:10354000BFF34F8FBFF36F8FECE704F11000FFF76D
:10355000DCFE04F12400FFF7D8FEE3E704ED00E011
:1035600010B5029B0C4639B11A60D8631C64012166
:103570001846FFF7B3FF10BD1B60F6E740B94FF0E8
:10358000500383F31188BFF36F8FBFF34F8FFEE7B4
:10359000F0B583B0064611B101FB00F000E0002059
:1035A00017460C46483001F099F9054650B1002302
:1035B00080F8463000903B4600F1480221463046F4
:1035C000FFF7CEFF284603B0F0BD0000F0B585B090
:1035D000019260B1044699B9026C8AB14FF0500370
:1035E00083F31188BFF36F8FBFF34F8FFEE74FF068
:1035F000500383F31188BFF36F8FBFF34F8FFEE744
:10360000022B0BD1E26B012A08D04FF0500383F359
:103610001188BFF36F8FBFF34F8FFEE71E460F4633
:1036200000F0E6FE50B9019B53B14FF0500383F315
:103630001188BFF36F8FBFF34F8FFEE700253AE08D
:10364000002538E0324639462046FFF7C2FE636A5D
:103650004BB9A8B13B4B4FF080521A60BFF34F8F6C
:10366000BFF36F8F0CE004F1240000F02DFE38B1A1
:10367000344B4FF080521A60BFF34F8FBFF36F8F00
:1036800000F0AAFF012005B0F0BD00F0A5FF00206A
:10369000F9E702A800F05AFE012519E0002384F89A
:1036A000443021E0002384F8453023E02046FFF732
:1036B000DDFE00F0B7FC00F06DFFA26BE36B9A42F9
:1036C000C0D3022EBED0019B002BDED0002DE0D057
:1036D00000F082FF00F006FC00F05CFF94F844303C
:1036E0005BB2B3F1FF3FD9D094F845305BB2B3F190
:1036F000FF3FD7D000F070FF01A902A800F030FE14
:10370000C8B92046FFF749FE0028CFD0019904F13F
:10371000100000F0BFFD2046FFF7A8FE00F082FC7D
:103720000028C8D1074B4FF080521A60BFF34F8F6B
:10373000BFF36F8FBFE72046FFF798FE00F072FCE3
:103740000020A0E704ED00E02DE9F84360B1044655
:1037500099B9006C88B14FF0500383F31188BFF31F
:103760006F8FBFF34F8FFEE74FF0500383F3118845
:10377000BFF36F8FBFF34F8FFEE7022B0BD1E06BD0
:10378000012808D04FF0500383F31188BFF36F8FE7
:10379000BFF34F8FFEE71F469046894601F020F8A1
:1037A000EFF311864FF0500383F31188BFF36F8F4F
:1037B000BFF34F8FA26BE36B9A4203D3022F01D06A
:1037C00000200FE094F845506DB23A464946204635
:1037D000FFF7FFFDB5F1FF3F08D06B1C5BB284F82B
:1037E0004530012086F31188BDE8F883636A5BB138
:1037F00004F1240000F068FD40B1B8F1000F07D0DB
:103800000120C8F80000EDE70120EBE70120E9E71F
:103810000120E7E7F0B585B0019260B1044699B99F
:10382000036C8BB14FF0500383F31188BFF36F8F9C
:10383000BFF34F8FFEE74FF0500383F31188BFF3C0
:103840006F8FBFF34F8FFEE70F4600F0D1FD50B9E9
:10385000019B53B14FF0500383F31188BFF36F8F77
:10386000BFF34F8FFEE700263EE000263CE03946DE
:103870002046FFF7E9FD013DA563236923B900F068
:10388000ABFE012005B0F0BD04F1100000F01CFDFE
:103890000028F4D0344B4FF080521A60BFF34F8FA2
:1038A000BFF36F8FEBE700F097FE0020EAE702A876
:1038B00000F04CFD012621E0002384F8443029E08B
:1038C000002384F845302BE02046FFF7CFFD00F0C1
:1038D000A9FB09E02046FFF7C9FD00F0A3FB204645
:1038E000FFF76AFD00283DD100F054FEA56B002DC6
:1038F000BDD1019B002BD6D0002ED8D000F06CFE9D
:1039000000F0F0FA00F046FE94F844305BB2B3F1F8
:10391000FF3FD1D094F845305BB2B3F1FF3FCFD039
:1039200000F05AFE01A902A800F01AFD0028D1D12A
:103930002046FFF741FD0028C6D0019904F124007C
:1039400000F0A8FC2046FFF791FD00F06BFB00287B
:10395000CAD1054B4FF080521A60BFF34F8FBFF3AF
:103960006F8FC1E700208DE704ED00E070B584B0F3
:10397000019260B1044699B9036C8BB14FF05003CA
:1039800083F31188BFF36F8FBFF34F8FFEE74FF0C4
:10399000500383F31188BFF36F8FBFF34F8FFEE7A0
:1039A0000E4600F025FD50B9019B53B14FF0500376
:1039B00083F31188BFF36F8FBFF34F8FFEE70025AE
:1039C0003EE000253CE0E56831462046FFF73CFD3F
:1039D000E560636A23B900F0FFFD012004B070BD0B
:1039E00004F1240000F070FC0028F4D0344B4FF0B8
:1039F00080521A60BFF34F8FBFF36F8FEBE700F079
:103A0000EBFD0020EAE702A800F0A0FC012521E080
:103A1000002384F8443029E0002384F845302BE06B
:103A20002046FFF723FD00F0FDFA09E02046FFF7EE
:103A30001DFD00F0F7FA2046FFF7BEFC00283DD13F
:103A400000F0A8FDA36B002BBDD1019B002BD6D0AD
:103A5000002DD8D000F0C0FD00F044FA00F09AFD2F
:103A600094F844305BB2B3F1FF3FD1D094F84530C5
:103A70005BB2B3F1FF3FCFD000F0AEFD01A902A8C9
:103A800000F06EFC0028D1D12046FFF795FC0028FD
:103A9000C6D0019904F1240000F0FCFB2046FFF79A
:103AA000E5FC00F0BFFA0028CAD1054B4FF0805268
:103AB0001A60BFF34F8FBFF36F8FC1E700208DE710
:103AC00004ED00E0074B9B6A1B6833B1054B9A6A13
:103AD000D268D2685268DA627047024B4FF0FF3208
:103AE000DA6270472C0000202DE9F04780469946A5
:103AF000089D099F0A9C266B02F18042013A06EB61
:103B0000820626F0070689B30A4600230F2B07D842
:103B1000D05CE11881F83400D15C09B10133F5E7DC
:103B2000002384F84330062D00D90625E56265643C
:103B30004FF0000AC4F848A0201DFFF7F1FB04F184
:103B40001800FFF7EDFB2461C5F10705A56164626C
:103B5000C4F84CA084F850A04A464146304600F0D4
:103B6000EDFC206007B13C60BDE8F087002384F8DD
:103B70003430D8E770B5002407E004EB84029300EA
:103B800010481844FFF7C1FB0134062CF5D90E4C40
:103B900004F1BC063046FFF7B8FB04F1D005284617
:103BA000FFF7B3FB04F11400FFF7AFFB04F1E400EF
:103BB000FFF7ABFB2046FFF7A8FBA662C4F8F8505E
:103BC00070BD00BF5C0000202C00002038B5054609
:103BD00000F0E0FC264BD3F8FC200132C3F8FC20B7
:103BE000D3F8003173B1224BD3F804318BB9204B99
:103BF000D3F80031DA6AEB6A9A420AD81C4BC3F850
:103C0000005106E01A4BC3F80051D3F8FC30012BE9
:103C10002AD0174CD4F808310133C4F80831EB6AC4
:103C200001229A40D4F80C110A43C4F80C2104F183
:103C3000300003EB83039A00291D1044FFF773FB48
:103C400000F0CAFCD4F804316BB1D4F80031DA6A60
:103C5000EB6A9A4207D2074B4FF080521A60BFF3CB
:103C60004F8FBFF36F8F38BDFFF784FFD1E700BFE1
:103C70002C00002004ED00E010B5044690F851300F
:103C800033B9006B00F0A4FE204600F0A1FE10BD89
:103C9000012B0AD0022BFAD04FF0500383F3118886
:103CA000BFF36F8FBFF34F8FFEE700F091FEEEE79B
:103CB00038B517E000F06EFC0D4CD4F8F030DD683C
:103CC000281DFFF756FBD4F8FC30013BC4F8FC304C
:103CD000D4F81031013BC4F8103100F07DFC2846C7
:103CE000FFF7CAFF024BD3F81031002BE2D138BDE9
:103CF0002C00002008B5FFF7DBFF064B1B6B012BE8
:103D0000F9D9054B4FF080521A60BFF34F8FBFF3C4
:103D10006F8FF0E72C00002004ED00E070B5044642
:103D20000E461F4BD3F81451D3F800010430FFF7AF
:103D300020FB60B91A4BD3F80021D16A012202FAA4
:103D400001F1D3F80C2122EA0102C3F80C21B4F1ED
:103D5000FF3F12D02C44124BD3F800315C60A542D7
:103D600014D80F4DA86AD5F800110431FFF7E7FA0F
:103D7000EB6AA34212D9EC6210E0002EEAD00848A8
:103D8000D0F800110431FFF7CEFA07E0044BD3F866
:103D9000F800D3F800110431FFF7D1FA70BD00BF6D
:103DA0002C00002070B586B00B9D0C9C45B94FF0DF
:103DB000500383F31188BFF36F8FBFF34F8FFEE77C
:103DC00044B94FF0500383F31188BFF36F8FBFF3F3
:103DD0004F8FFEE754260496049E542E08D04FF0D1
:103DE000500383F31188BFF36F8FBFF34F8FFEE74C
:103DF000049E2563022584F8515000250395029402
:103E000005AD01950A9D0095FFF76EFE2046FFF770
:103E1000DDFE059806B070BD2DE9F04385B007467C
:103E2000884615469946900000F058FD08B30646AE
:103E3000542000F053FD0446B8B10663E4B10023FA
:103E400084F85130039302940D9B01930C9B0093D3
:103E50004B462A4641463846FFF746FE2046FFF7C6
:103E6000B5FE012005B0BDE8F083304600F0B0FD9E
:103E7000E4E74FF0FF30F5E74FF0FF30F2E70000E6
:103E800010B588B000240594069407AA06A905A8D1
:103E900000F054FE059B0293069B01930094234679
:103EA000079A0D490D48FFF77DFF08B908B010BD0E
:103EB0004FF0500383F31188BFF36F8FBFF34F8F21
:103EC000074B4FF0FF32DA620122C3F80421C3F836
:103ED000144100F001FCE9E7F4560008F53C000845
:103EE0002C000020034AD2F818310133C2F81831EF
:103EF000704700BF2C000020014BD3F8140170471D
:103F00002C00002008B500F06BFC024BD3F8140124
:103F100008BD00BF2C0000202DE9F041404BD3F834
:103F20001831002B6CD13E4BD3F814510135C3F836
:103F30001451CDB99B6A1B6843B14FF0500383F312
:103F40001188BFF36F8FBFF34F8FFEE7344B9A6A30
:103F5000D3F8F8109962C3F8F820D3F81C21013285
:103F6000C3F81C21FFF7AEFD2D4BDB6AAB423DD9F8
:103F700000242B4AD2F80031DB6A03EB830399005B
:103F80000A44136B012B42D9012440E00124244B45
:103F90009B6A1B6863B3224B9B6ADB68DE687368AD
:103FA0009D422AD306F104084046FFF7E2F9B36ABE
:103FB0001BB106F11800FFF7DCF9F36A01229A4001
:103FC000174FD7F80C110A43C7F80C2107F130003E
:103FD00003EB83039A0041461044FFF7A4F9F26A09
:103FE000D7F80031DB6A9A42D0D2D0E70024CEE77E
:103FF0000B4B4FF0FF32DA62BBE7094AD362B8E7F6
:10400000074AD2F820310133C2F820310024044B92
:10401000D3F8243103B101242046BDE8F08100BF6C
:104020002C000020394BD3F8183143B94FF050031E
:1040300083F31188BFF36F8FBFF34F8FFEE770B527
:1040400000F0A8FA314BD3F81821013AC3F818212F
:10405000D3F81831002B54D12C4BD3F8FC3023B9B2
:10406000002400F0B9FA204670BD0024274B5B699C
:104070002BB3264D2B6ADC6804F11800FFF779F9A1
:10408000261D3046FFF775F9E36A01229A40D5F8FC
:104090000C110A43C5F80C2105F1300003EB830332
:1040A0009A0031461044FFF73EF9E26AD5F8003134
:1040B000DB6A9A42DAD30122C5F82421D6E70CB193
:1040C000FFF700FD114BD3F8204164B1FFF724FF47
:1040D00018B10E4B0122C3F82421013CF6D10B4B41
:1040E0000022C3F82021094BD3F824315BB1084BDF
:1040F0004FF080521A60BFF34F8FBFF36F8F0124D0
:10410000AFE70024ADE70024ABE700BF2C000020A0
:1041100004ED00E038B550B1054689B94FF05003C1
:1041200083F31188BFF36F8FBFF34F8FFEE74FF01C
:10413000500383F31188BFF36F8FBFF34F8FFEE7F8
:104140001B4BD3F8183143B14FF0500383F3118860
:10415000BFF36F8FBFF34F8FFEE70C46FFF7C2FE32
:10416000134BD3F814012A681444824218D9A2428E
:104170000CD82C60FFF756FF38B90E4B4FF0805229
:104180001A60BFF34F8FBFF36F8F38BDA04201D3CA
:104190002C60EFE72C600021201AFFF7BFFDE9E754
:1041A000A24201D8A04201D22C60F4E72C60E1E7E2
:1041B0002C00002004ED00E010B5B0B104460F4B18
:1041C000D3F8183143B14FF0500383F31188BFF394
:1041D0006F8FBFF34F8FFEE7FFF784FE002120466D
:1041E000FFF79CFDFFF71EFF38B9054B4FF08052DB
:1041F0001A60BFF34F8FBFF36F8F10BD2C000020EC
:1042000004ED00E0224BD3F8183123B1204B0122FA
:10421000C3F8242170471E4A0023C2F82431D2F883
:104220000C31B3FA83F3DBB2C3F11F0303EB83005A
:1042300081000A44126B42B94FF0500383F3118896
:10424000BFF36F8FBFF34F8FFEE710B4104A990092
:10425000CC18A0001044446B6468446330321944A5
:1042600088000830024494420BD0094903EB8303D1
:104270009A000A44536BDB68C1F800315DF8044BC7
:10428000704761680248142202FB03025163ECE7A5
:104290002C00002040B94FF0500383F31188BFF386
:1042A0006F8FBFF34F8FFEE710B50C46054BD3F869
:1042B00000111831FFF743F801212046FFF72EFDCA
:1042C00010BD00BF2C00002038B5C368DC6844B9BD
:1042D0004FF0500383F31188BFF36F8FBFF34F8FFD
:1042E000FEE704F118052846FFF743F8154BD3F80D
:1042F000183103BB251D2846FFF73BF8E36A01216F
:104300009940104AD2F80C010143C2F80C11303226
:1043100003EB8303980029461044FFF704F8E26A90
:10432000084BD3F80031DB6A9A4209D90120054BCA
:10433000C3F8240138BD29460348FEF7F4FFEEE731
:104340000020F7E72C00002040000020034BD3F8AA
:104350001C210260D3F81431436070472C00002008
:10436000F8B550B1054689B94FF0500383F3118871
:10437000BFF36F8FBFF34F8FFEE74FF0500383F310
:104380001188BFF36F8FBFF34F8FFEE70C4600F02D
:1043900001F9124BD3F8141168680A1A2368B3F1B3
:1043A000FF3F17D02F680D4ED6F81C61B74201D0E1
:1043B000884211D9934203D800232360012405E0E9
:1043C0009B1A23602846FFF7C1FF002400F004F980
:1043D0002046F8BD0024F9E70124F7E72C0000206F
:1043E000024B0122C3F82421704700BF2C0000209B
:1043F000064BD3F804313BB1044BD3F818310BB161
:104400000020704702207047012070472C000020D8
:1044100000284DD038B50446284AD2F800218242FF
:1044200008D04FF0500383F31188BFF36F8FBFF3B1
:104430004F8FFEE7826C42B94FF0500383F311882F
:10444000BFF36F8FBFF34F8FFEE7013A8264C06AFC
:10445000616C88422ED07ABB251D2846FEF789FF65
:1044600078B9E26A1549142303FB02131B6B43B9A5
:10447000012303FA02F2D1F80C3123EA0203C1F856
:104480000C31626CE262C2F10703A361012404FAF9
:1044900002F10A4BD3F80C010143C3F80C1130337D
:1044A0002946142000FB0230FEF73DFF204638BDB0
:1044B000002070470020FAE70020F8E72C000020D9
:1044C00082B0002301930D4B1B68B3F1FF3F08D06E
:1044D0004FF0500383F31188BFF36F8FBFF34F8FFB
:1044E000FEE74FF0500383F31188BFF36F8FBFF3E4
:1044F0004F8F019B002BFCD002B0704708000020BA
:1045000008480068006880F308884FF0000080F3D6
:10451000148862B661B6BFF34F8FBFF36F8F00DFB1
:1045200000BF000008ED00E0DFF80C00016841F476
:10453000700101607047000088ED00E04FF080736B
:1045400040F8043C21F0010140F8081C054B40F8FC
:104550000C3C40F8202C6FF0020340F8243C443817
:10456000704700BFC14400080000000000000000C8
:10457000074B19680868B0E8F04F80F30988BFF36B
:104580006F8F4FF0000080F311887047AFF3008009
:104590002C0100204FF0500383F31188BFF36F8F7D
:1045A000BFF34F8F0A4A136801331360012B00D009
:1045B0007047084B1B6813F0FF0FF9D04FF0500302
:1045C00083F31188BFF36F8FBFF34F8FFEE700BFF8
:1045D0000800002004ED00E0094B1B6843B94FF0D0
:1045E000500383F31188BFF36F8FBFF34F8FFEE744
:1045F000013B034A13600BB983F31188704700BF76
:104600000800002000000000000000000000000082
:10461000EFF30980BFF36F8F154B1A681EF0100F70
:1046200008BF20ED108A20E9F04F10602DE9090045
:104630004FF0500080F31188BFF34F8FBFF36F8F9F
:10464000FFF7E0FD4FF0000080F3118809BC196806
:104650000868B0E8F04F1EF0100F08BFB0EC108AE9
:1046600080F30988BFF36F8F704700BFAFF30080FE
:104670002C01002008B54FF0500383F31188BFF3DD
:104680006F8FBFF34F8FFFF747FC18B1034B4FF00D
:1046900080521A60002383F3118808BD04ED00E006
:1046A000084A0023136008490B60084B1B6808493F
:1046B000A1FB03139B09013B06490B600723136011
:1046C000704700BF10E000E018E000E00C000020A0
:1046D000D34D621014E000E0394B1A68394B9A420E
:1046E0000DD0374B1A68384B9A4211D14FF0500316
:1046F00083F31188BFF36F8FBFF34F8FFEE74FF047
:10470000500383F31188BFF36F8FBFF34F8FFEE722
:1047100010B582B02D4B1A78D2B20192FF221A70D6
:104720001B78DBB28DF803309DF8033003F05003A3
:10473000274A13700723536009E0254A5368013B59
:1047400053609DF803305B00DBB28DF803309DF8B9
:10475000033013F0800FF0D11D4B5B68032B08D0A2
:104760004FF0500383F31188BFF36F8FBFF34F8F68
:10477000FEE71B0203F4E063154A5360019BDBB2C2
:10478000124A1370134B1A6842F470021A601A68C6
:1047900042F070421A60FFF783FF00240E4B1C604A
:1047A000FFF7C2FE0D4A136843F040431360FFF762
:1047B000A7FEFFF727FDFFF783FE204602B010BDDE
:1047C00000ED00E071C20F4170C20F4100E400E053
:1047D0005401002020ED00E00800002034EF00E04C
:1047E000EFF305830F2B0FD9104A9B5CDBB2104A05
:1047F00012789A4208D94FF0500383F31188BFF31F
:104800006F8FBFF34F8FFEE70A4B1B6803F4E06323
:10481000074A5268934208D94FF0500383F3118836
:10482000BFF36F8FBFF34F8FFEE77047F0E300E0F9
:10483000540100200CED00E0114A12F0070F1BD0CC
:10484000D11D21F00701C1F53B53203313440A4623
:104850000C490A60002048601344083B23F007031A
:104860008B6058601860981A50601360C8600861C7
:104870004FF000434B61704742F6E063E8E700BF4A
:10488000740100205C01002010B4134B1A688242AE
:104890001BD359685C18844203D1406801445960B5
:1048A000184641684418A24213D10B4CA468A24296
:1048B0000DD05268114441601A6812680260984233
:1048C00000D018605DF8044B70471346DEE70460C3
:1048D000F5E70260F3E700BF5C01002070B5044615
:1048E000FFF700FB394B9B68BBB1384B5B691C423F
:1048F00062D1ACB1083414F0070F11D024F00704D2
:10490000083404F007035BB14FF0500383F31188C0
:10491000BFF36F8FBFF34F8FFEE7FFF78DFFE4E725
:10492000002C4BD0294B1B69A34249D3274B1D6850
:1049300001E02B4615466A68A24202D22A68002A84
:10494000F7D1224A9268AA423CD01E6808362A68EB
:104950001A606B681B1B102B10D9281910F0070F59
:1049600008D04FF0500383F31188BFF36F8FBFF36C
:104970004F8FFEE743606C60FFF786FF6968134A5C
:1049800013695B1A1361D268934201D20F4AD36054
:104990000E4B5B690B436B6000232B60FFF742FB00
:1049A00016F0070F10D04FF0500383F31188BFF3B8
:1049B0006F8FBFF34F8FFEE70026EFE70026EDE78E
:1049C0000026EBE70026E9E7304670BD5C010020D9
:1049D00080B338B50446A0F1080550F8042C1649F8
:1049E00049690A4208D14FF0500383F31188BFF39D
:1049F0006F8FBFF34F8FFEE750F8080C40B14FF0B8
:104A0000500383F31188BFF36F8FBFF34F8FFEE71F
:104A100022EA010244F8042CFFF764FA54F8041C5B
:104A2000054A13690B4413612846FFF72DFFFFF772
:104A3000F9FA38BD704700BF5C01002000B591B0A5
:104A40000CAB6A460021FCF76AFC049B0B93009BAD
:104A5000079300231A4607A903488068FEF774FEEF
:104A600011B05DF804FB00BFB832002000B591B072
:104A70000CAB6A460021FCF752FC049B0B93009B95
:104A8000079300231A4607A903488068FEF75CFED7
:104A900011B05DF804FB00BFB832002000B591B042
:104AA0000023089303E0052108A8FFF733FBFFF775
:104AB00023FA0890052209A9124BD868FEF756FF81
:104AC0000128F0D1052209A90E4BD868FEF7A2FEF5
:104AD0000D9B06930B9B04930C9B0593099B0293E0
:104AE00000238DF81C30074B1868FCF7FDFB0028ED
:104AF000F9D001AB0EAA02A902480068FCF77FFBBF
:104B0000D1E700BFB832002000B58BB04DF2206372
:104B100000934FF4804301934FF4D8430293002352
:104B20000393049305930122069207930892694622
:104B3000FCF7B9FA0BB05DF804FB0000034B03600F
:104B400054330B6080231360704700BF5430002043
:104B500000B593B0784B794A1A60794A5A600022BE
:104B60000192052209A99868FEF754FE012802D097
:104B700013B05DF804FB099B40F20542934269D0F3
:104B800015D9B3F5846F00F0898030D840F2074220
:104B9000934271D067D3B3F5816F44D19DF838301B
:104BA0009DF8392043EA0223634A53853BE040F2F3
:104BB000014293422FD00DD940F20342934237D0A5
:104BC0003FD89DF838309DF8392043EA02235A4AED
:104BD000138428E03B2B58D03C2B24D19DF838304F
:104BE0009DF8392043EA0223534AD3851BE0B3F5ED
:104BF000E06F61D040F2017293427DD040F2B16229
:104C0000934210D19DF838309DF8392043EA0223B1
:104C1000494A138607E09DF838309DF8392043EA69
:104C20000223454A93830A2101A8FFF773FA9FE7FD
:104C30009DF838309DF8392043EA02233E4AD38359
:104C4000F1E79DF838309DF8392043EA02233A4ACB
:104C50005384E8E79DF838309DF8392043EA022371
:104C6000354A9384DFE79DF838309DF8392043EAD0
:104C70000223314AD384D6E79DF838309DF8392095
:104C800043EA02232C4A1385CDE79DF838309DF87E
:104C9000392043EA0223284A9385C4E79DF8382047
:104CA000254B83F832209DF83A2083F833209DF875
:104CB0003B2083F83420B6E79DF83B309DF83A203E
:104CC00043EA02239DF8392043EA02439DF8382045
:104CD00043EA0263184A93639DF83F309DF83E1003
:104CE00043EA01239DF83D1043EA01439DF83C103F
:104CF00043EA0163D36396E79DF83B309DF83A2081
:104D000043EA02239DF8392043EA02439DF8382004
:104D100043EA0263084A13649DF83F309DF83E1051
:104D200043EA01239DF83D1043EA01439DF83C10FE
:104D300043EA0163536476E7B8320020F43300207D
:104D40007433002008B54FF47A70FBF7E3FBFAE701
:104D500010B582B0002224212020FEF70FFC274C42
:104D6000A06000221C210820FEF708FCE060002261
:104D70000A210520FEF702FC2061002220210A20E2
:104D8000FEF7FCFB606100230193012200924FF4C7
:104D900000721B491B48FFF73FF8012825D100236B
:104DA0000193012200924FF4807217491748FFF7D0
:104DB00033F801281BD100230193012200924FF404
:104DC000807213491348FFF727F8012811D10023F7
:104DD0000193012200924FF480720F490F48FFF7B0
:104DE0001BF8012807D102B010BDFFF7ABFFFFF79A
:104DF000A9FFFFF7A7FFFFF7A5FF00BFB83200200C
:104E0000FC560008514B0008085700089D4A00084E
:104E10001457000869550008245700085951000824
:104E200070B588B000240394049405940694079404
:104E3000274BDA6C42F00402DA64DA6C02F0040206
:104E40000092009ADA6C42F00102DA64DA6C02F045
:104E500001020192019ADA6C42F00202DA64DB6C20
:104E600003F002030293029B1A4D2246402128467A
:104E7000FCF774FD10230393174E0496059403A9C1
:104E80004FF09040FCF7AAFCA023039304960594EE
:104E900003A92846FCF7A2FC4023039301230493B3
:104EA0000594069403A92846FCF798FC22460521A0
:104EB0000A20FCF729FC0A20FCF75AFC22460521AF
:104EC0001720FCF721FC1720FCF752FC08B070BD3E
:104ED00000100240000400480000111008B5012035
:104EE000FEF70AFAFBE7000008B50268034B9A4296
:104EF00000D008BDFBF7FCFAFBE700BF002C014027
:104F0000FEE7000008B50D480D4B03600423436025
:104F100000238360C3604FF4002202614FF4A002BB
:104F200042610376012242768376C3760377437724
:104F3000FCF713F800B908BDFFF7E2FFF4330020D7
:104F40000064004000B587B00023009301930293F2
:104F50000393049305931F481F4A02604FF40022F5
:104F600042608360C36001220261042141610376D3
:104F700042760222C26180F820308362C36280F8E8
:104F80003030436380F83830FBF7D8FAD8B9134B88
:104F900000930623019302937F2303930423049336
:104FA0000023059369460B48FBF716FC68B90C4BC8
:104FB00000930C23019369460648FBF70DFC30B9BA
:104FC00007B05DF804FBFFF79BFFFFF799FFFFF7C2
:104FD00097FF00BF0833002000000450001060322B
:104FE0000000214308B50D480D4B03604FF41653E4
:104FF000436000238360C36003610C2242618361CC
:10500000C3610362082343624FF400434363FEF726
:1050100000F900B908BDFFF773FF00BF743300202B
:105020000044004000B5ADB0242200211CA800F0CF
:105030001AFB002116911791189119911A91542277
:1050400001A800F010FB10211B9101222192602386
:1050500023930223259326922792289107222992AF
:105060002A932B931BA8FCF77FFD68BB0F23169395
:10507000032317930023189319931A93012116A859
:10508000FDF7B8F810BB44F20203019300230A9322
:105090004FF080531393012302930393102304933F
:1050A000072305930223069307934FF08073089319
:1050B00001A8FDF749FA58B94FF40070FCF76AFCF3
:1050C00040B92DB05DF804FBFFF71AFFFFF718FF9A
:1050D000FFF716FFFFF714FF00B589B0FBF7F8F9EB
:1050E000FFF7A0FF4FF4FA70FBF714FAFFF798FEF2
:1050F000FFF708FFFFF726FFFFF774FF0A20FBF713
:1051000009FAFFF725FE114C2046FFF7FDFC0A20A7
:10511000FBF700FA2046FCF744F802212046FCF792
:1051200098F910212046FCF794F901AC084D0FCDF9
:105130000FC495E8070084E80700002101A8FEF7E6
:10514000A5F8044B1860FEF79CF8FEE7F433002046
:10515000905600080433002070B588B000230793F0
:10516000FEF7CAFE0790144C2046FBF741FE0A21C9
:105170002046FBF7D5FA2046FBF72AFB064685B208
:105180002046FBF7C5FE0023029303934FF4F86219
:105190000092022204928DF814602D0A8DF81550A9
:1051A000642269460548C068FEF710FA322107A854
:1051B000FEF7B0FFD4E700BF08330020B83200206C
:1051C00000B583B00D4B1A6E42F001021A661A6EDA
:1051D00002F001020092009A9A6D42F080529A65A4
:1051E0009B6D03F080530193019B00220F216FF010
:1051F0000100FCF789FA03B05DF804FB00100240DF
:1052000010B588B000230393049305930693079386
:1052100002681B4B9A4201D008B010BD03F17043E5
:10522000A3F5F833DA6C42F40052DA64DA6C02F473
:1052300000520092009ADA6C42F00102DA64DA6CF1
:1052400002F001020192019ADA6C42F00202DA6481
:10525000DB6C03F002030293029B802303930B2475
:10526000049403A94FF09040FCF7B8FA032303938A
:1052700004940023059303A90248FCF7AFFACBE797
:10528000000004500004004800B589B000230393D7
:1052900004930593069307930268204B9A4202D029
:1052A00009B05DF804FB03F5D6339A6D42F0007245
:1052B0009A659A6D02F000720192019ADA6C42F0DE
:1052C0000102DA64DB6C03F001030293029B4FF4EA
:1052D000C0530393022304930323069309230793E4
:1052E00003A94FF09040FCF779FA00220521132022
:1052F000FCF70AFA1320FCF73BFA002205211420E0
:10530000FCF702FA1420FCF733FA002205211520DD
:10531000FCF7FAF91520FCF72BFAC1E7006400400E
:1053200000B589B000230393049305930693079374
:105330000268184B9A4202D009B05DF804FB03F5ED
:10534000E6339A6D42F400329A659A6D02F40032A7
:105350000192019ADA6C42F00102DA64DB6C03F02C
:1053600001030293029B0C23039302230493032360
:1053700006930723079303A94FF09040FCF72EFAFA
:10538000002205212620FCF7BFF92620FCF7F0F9C2
:10539000D2E700BF0044004000B589B000220146BA
:1053A0001920FCF7B1F91920FCF7E2F9144B1A6E39
:1053B00042F400621A661B6E03F400630193019BC2
:1053C00002A903A8FCF7ECFFFCF7D8FF0D4BA3FBE9
:1053D00000239B0C013B0C480C4A026040F2E73270
:1053E000C2604360002303618360FDF763FB18B173
:1053F000012009B05DF804FB0348FDF71BFAF8E74C
:105400000010024083DE1B431C340020002C0140AE
:105410007047FEE7FEE7FEE7FEE7704700B589B09C
:10542000FEF770FD104B1B68C01AB0F5FA7F05D867
:105430001020FCF799FA09B05DF804FB00230293F1
:105440000393012204924FF4547100918DF81420BB
:1054500007AA69460548C068FEF776F9FEF752FDCF
:10546000014B1860E4E700BFA8320020B8320020EA
:1054700008B50248FCF70AF808BD00BFF433002065
:1054800008B50248FCF702F808BD00BFF43300205D
:1054900008B50248FBF7FAFF08BD00BFF43300204F
:1054A00000B589B0FEF72EFD124B1B68C01AB0F58F
:1054B000FA7F08D82020FCF757FA8020FCF754FA2E
:1054C00009B05DF804FB00230293039301220492C8
:1054D0004FF45472009202228DF8142007AA6946F4
:1054E0000548C068FEF730F9FEF70CFD014B186067
:1054F000E0E700BFA8320020B832002008B502481B
:10550000FDF7D2F908BD00BF1C34002008B50248E1
:10551000FDF79CFB08BD00BF743300200F49D1F894
:10552000883043F47003C1F888300D4B1A6842F09C
:1055300001021A60002098601A6822F0A85222F432
:1055400010221A604FF48052DA601A6822F4802226
:105550001A6098614FF000638B60704700ED00E0C7
:10556000001002407047000000B58BB0002301938B
:1055700003E00A2101A8FEF7CDFDFEF7BDFC019076
:10558000052202A90A4B5869FEF7F0F90128F0D16B
:10559000074C052202A96069FEF73CF9BDF82620F8
:1055A00002A96068FDF70CFB3220FAF7B3FFE0E7D1
:1055B000B8320020DFF834D0002103E00C4B5B58F8
:1055C000435004310B480C4B42189A42F6D30B4A15
:1055D00002E0002342F8043B094B9A42F9D3FFF75B
:1055E0009DFF00F011F8FFF777FDFEE700000120B6
:1055F000605700080000002010000020100000206C
:1056000068340020FEE7000070B50D4E0D4CA41B61
:10561000A4100025A54209D10B4E0C4C00F02CF82B
:10562000A41BA4100025A54205D170BD56F8253055
:1056300098470135EEE756F8253098470135F2E7EF
:10564000505700085057000850570008545700089A
:1056500010B5431E0A44914200D110BD11F8014B10
:1056600003F8014FF7E702440346934200D1704725
:1056700003F8011BF9E70000F8B500BFF8BC08BC4F
:105680009E467047F8B500BFF8BC08BC9E46704700
:1056900038570008DD4E0008000000000000000040
:1056A000000100000000000000000000A0860100D2
:1056B000400D0300801A060000350C0040420F0028
:1056C00080841E0000093D0000127A000024F400CE
:1056D00000366E010048E801006CDC0200000000AA
:1056E0000000000001020304060708090000000092
:1056F0000102030449444C45000000004D61696EFD
:10570000205461736B00000054782043616E205474
:1057100061736B0054582055617274205461736B2F
:105720000000000053746565722053656E736F72DC
:10573000205461736B00000064656661756C74547D
:0857400061736B000000000022
:08574800B8AAFF7F0100000078
:08575000B50100080000000093
:085758009101000800000000AF
:105760000100000010000000AAAAAAAA00093D003A
:04000005080055B5E5
:00000001FF
